:0200000460009A
:1000000010000000100000000000000000000000D0
:100010001C0000005000000000DC03200024000051
:1000200000000000000000000000000000000000D0
:1000300000000000000000000000000000000000C0
:1000400000000000000000000000000000000000B0
:100050000010002081DD03205BDD032061DD032033
:1000600059DD032061DD032061DD03200000000075
:10007000000000000000000000000000B54000206B
:10008000000000000000000063400020013F00204D
:1000900079DD032079DD032079DD032079DD03207C
:1000A00079DD032079DD032079DD032079DD03206C
:1000B00079DD032079DD032000000000000000004E
:1000C0000000000000000000000000000000000030
:1000D0000000000000000000000000000000000020
:1000E0000000000000000000000000000000000010
:1000F0000000000000000000000000000000000000
:1001000000000000000000000000000000000000EF
:1001100000000000000000000000000000000000DF
:1001200000000000000000000000000000000000CF
:1001300000000000000000000000000000000000BF
:1001400000000000000000000000000000000000AF
:10015000000000000000000000000000000000009F
:10016000000000000000000000000000000000008F
:10017000000000000000000000000000000000007F
:10018000000000000000000000000000000000006F
:10019000000000000000000000000000000000005F
:1001A0000000000000000000FEE70ABEFEE7704706
:1001B000EFF3148010F0020F0CBFEFF30880EFF3A1
:1001C000098000F05BB8704701BEFEE77047000091
:1001D00008B5214B1A6822F000421A601A6842F0F2
:1001E00000421A6072B6002306E01C4A52F823103F
:1001F0001B4A42F823100133552BF6D9184A194BE4
:100200009A60BFF35F8F184B83F30A8800F0C8F839
:10021000164A0AE01068516850F8230041F823009C
:10022000013391688B42F5D30C32114B9A4201D2C3
:100230000023F6E70F4A08E01168002041F8230088
:10024000013351688B42F7D308320B4B9A4201D2EB
:100250000023F6E701F044FD0030104000DC0320ED
:100260000010002000ED00E000000020948F020844
:10027000AC8F0208B48F0208BC8F020808B501F0E9
:100280006BFC08BD08B501F023FD08BD084A08E075
:100290001168002041F82300013351689942F7D8D2
:1002A0000832044B9A4201D20023F6E7704700BFA0
:1002B00098F80320A0F8032000BF704710B5002075
:1002C00000F008FF124C2060124B1860012000F073
:1002D00001FF114B18602368104A136003F5742264
:1002E00002F23F220E49A1FB0212C2F387420D49DE
:1002F0000A7003F2E7330C4AA2FB03239B090B4A63
:100300001360002000F0E6FE094B186010BD00BF2E
:100310006882002070820020748200207882002091
:1003200083DE1B4380820020D34D62107C8200203C
:100330006C82002008B500220121084600F05AFB1B
:1003400000220121022000F055FB0122114603206A
:1003500000F050FB4FF0FF320021012000F04AFB7B
:100360004FF0FF320021022000F044FB4FF0FF323B
:100370000021032000F03EFB074800F017F8FFF7CC
:100380009BFF01F0A1FC054A136823F001031360F1
:10039000FFF794FF08BD00BFA0F8032000C0204075
:1003A00008B5FFF773FFFFF7C5FF08BD014B1860E5
:1003B000704700BF389D00204FEA102CB0F5E06F69
:1003C00000D301BEF1B9BCF1030F06D84FEACC004F
:1003D0004FF4A061C140C9B200E0002191423AD976
:1003E000FF2B3AD8204902EBCC2C0CF5806C51F84D
:1003F0002C2022F47F421B029BB2134341F82C3085
:1004000000207047012901D018487047BCF1030F44
:100410001FD84FEACC004FF48061C140C9B291426D
:100420001DD9B3F5803F1CD20F4802EBCC2202F558
:10043000A06250F8221021F47F0121F47F411B02B9
:1004400023F07F4323F0FF03194340F822100020DC
:1004500070470021E3E705487047044870470348A8
:1004600070470248704700BF0000044001004A0086
:10047000030AB0F5E06F00D301BE012900D901BE27
:10048000A9B9032B05D8D8004FF4A061C140C9B267
:1004900000E00021914200D801BE02EBC32202F528
:1004A00080620E4B53F82200C0F307207047032BE5
:1004B00005D8D8004FF48061C140C9B200E00021E6
:1004C000914200D801BE02EBC32202F5A062034BA9
:1004D00053F82200C0F30F20704700BF0000044013
:1004E00030B54FEA102CB0F5E06F00D301BE022901
:1004F00003D03448032939D030BDBCF1030F2DD8C7
:100500004FEACC0E4FF0022020FA0EF0C0B290421B
:1005100026D9B3F5803F25D203981F2824D82A4D29
:1005200002EBCC2E0EF5C06E55F82E0020F47F00A5
:1005300020F47F401C0224F07F4424F0FF04204379
:1005400045F82E0055F82E0020F0F800039CE4003A
:10055000E4B2204345F82E000020CBE70020D6E788
:100560001848C7E71748C5E71648C3E7BCF1030FAB
:1005700026D84FEACC0E40F2011121FA0EF1C9B291
:100580009142B9D9B3F1807FB6D203991F29B3D86C
:100590000D4802EBCC2202F5E06250F82210C9B2FD
:1005A00041EA032340F8223050F8221021F0F801EC
:1005B000039BDB00DBB20B4340F8223000209BE7BB
:1005C0000021DDE701004A000000044030B44FEA9A
:1005D000102CB0F5E06F00D301BE881EC0B2012818
:1005E00006D901BE022909D0032926D030BC7047A4
:1005F000002BF6D002980028F4D1F2E7BCF1030FEB
:1006000019D84FEACC044FF00220E040C0B290422B
:1006100000D801BE184D02EBCC2000F5C06055F8A3
:100620002040C4F30F241C6055F82000C0F3C40020
:10063000029C2060D8E70020E9E7BCF1030F18D83E
:100640004FEACC0040F20111C140C9B2914200D83A
:1006500001BE094802EBCC2202F5E06250F82210FC
:10066000090A196050F82230C3F3C403029A1360D8
:10067000BCE70021EAE700BF000004404FEA102C6D
:10068000C3B2B0F5E06F00D301BE032952D800B564
:1006900059B9BCF1030F10D84FEACC0E4FF4A0604B
:1006A00020FA0EF0C0B2904235D8012907D00229B5
:1006B00014D0032921D021483AE00020F3E7BCF10F
:1006C000030F07D84FEACC0E4FF4806020FA0EF0EB
:1006D000C0B200E0002090421DD8E8E7BCF1030F53
:1006E00009D84FEACC0E4FF0022020FA0EF0C0B22B
:1006F000904210D8DDE70020FAE7BCF1030F07D8DD
:100700004FEACC0E40F2011020FA0EF0C0B200E029
:100710000020904210D9090201F44071D2B20A437C
:1007200003EBCC2303F54073054941F82320002057
:100730005DF804FB014870470048F9E701004A00F2
:1007400000000440030AB0F5E06F00D301BE0329A6
:100750004DD851B9032B10D84FEAC30C4FF4A06009
:1007600020FA0CF0C0B2904232D8012907D00229F9
:1007700013D003291FD0204870470020F3E7032B34
:1007800007D84FEAC30C4FF4806020FA0CF0C0B2D7
:1007900000E0002090421BD8E9E7032B09D84FEA7C
:1007A000C30C4FF0022020FA0CF0C0B290420FD8D8
:1007B000DFE70020FAE7032B07D84FEAC30C40F22B
:1007C000011020FA0CF0C0B200E00020904210D9D5
:1007D000090201F44071D2B2114341F0034141F4E6
:1007E0007F01064A5B03D150D3580020704702486E
:1007F00070470148704700BF01004A0000000440F4
:10080000030AB0F5E06F00D301BE03294AD851B9FD
:10081000032B10D84FEAC30C4FF4A06020FA0CF061
:10082000C0B2904232D8012907D0022913D003293F
:100830001FD01E4870470020F3E7032B07D84FEA6C
:10084000C30C4FF4806020FA0CF0C0B200E000202E
:1008500090421BD8E9E7032B09D84FEAC30C4FF0AD
:10086000022020FA0CF0C0B290420FD8DFE700203F
:10087000FAE7032B07D84FEAC30C40F2011020FA25
:100880000CF0C0B200E0002090420DD9090201F442
:100890004071D2B2114341F080415B03044AD15010
:1008A00000207047014870470048704701004A0027
:1008B000000004404FEA102CB0F5E06F00D301BEF9
:1008C00051B9BCF1030F14D84FEACC004FF4A06328
:1008D000C340DBB2934206D801290CD0022918D0BC
:1008E000032924D001BE032957D8DFE801F02E38B0
:1008F000424C0023EEE7BCF1030F08D84FEACC00CE
:100900004FF48063C340DBB29342ECD8E6E70023A8
:10091000FAE7BCF1030F06D84FEACC004FF00223F0
:10092000C340DBB200E000239342DCD8D8E7BCF13F
:10093000030F08D84FEACC0040F20113C340DBB2EA
:100940009342D0D8CEE70023FAE702EBCC2202F59F
:100950008062134B53F8220000F00100704702EB55
:10096000CC2202F5A0620E4B53F8220000F00100E9
:10097000704702EBCC2202F5C062094B53F822000B
:1009800000F00100704702EBCC2202F5E062044B5C
:1009900053F8220000F0010070470020704700BFAC
:1009A00000000440042800D901BE054A136823F45E
:1009B000E063000200F4E06003431360704700BF8F
:1009C00000002240072800D901BE054AD2F80035B0
:1009D00023F0070300F007000343C2F80035704717
:1009E00000102040024BD3F8000500F007007047CC
:1009F00000102040030A5FFA80FC10F47F4F00D003
:100A000001BE10F0FC0F00D001BE022900D901BECA
:100A100019B101290ED00E487047DBB203EB430336
:100A20009B0703F1804303EB8C1344F210015A50EF
:100A300000207047DBB203EB43039B0703F18043C5
:100A400003EB8C1344F214015A500020704700BF8E
:100A500001004A00030AC2B210F47F4F00D001BE69
:100A600010F0FC0F00D001BE022900D901BE0129FF
:100A700010D002291AD009B112487047DBB203EB3B
:100A800043039B0703F1804303EB821344F21002FC
:100A900098587047DBB203EB43039B0703F1804395
:100AA00003EB821344F2140298587047DBB203EB55
:100AB00043039B0703F1804303EB821344F21802C4
:100AC0009858704701004A00032806D800F5926044
:100AD000034B53F82000C00F70470020704700BF41
:100AE00000002040431E022B0AD8064A00F59260FF
:100AF00052F8203023F0004342F8203000207047A5
:100B0000014870470000204001004A0003280FD828
:100B10000F290FD8084A00F5926052F8203023F0D0
:100B20000F0301F00F010B4342F820300020704703
:100B300002487047014870470000204001004A0009
:100B4000032800D901BE00F59260034B53F8200042
:100B500000F00F00704700BF00002040032810D8AD
:100B6000032910D8094A00F5926052F8203023F08A
:100B70003003090101F030010B4342F8203000201E
:100B80007047034870470248704700BF000020408C
:100B900001004A00032800D901BE00F59260034B12
:100BA00053F82000C0F30110704700BF0000204040
:100BB000032801D90020704700F59460044B53F8D6
:100BC000203013F4807F0CBF01200020704700BF4D
:100BD0000000204028B14FF04042034BC3F8582595
:100BE00070474FF00042F8E700102040024B1869B0
:100BF000C0F38000704700BF0000224008B5054ADE
:100C0000D2F8283543F00043C2F82835FA2000F026
:100C100093FF08BD0010204010B5094C0723C4F80D
:100C200040310823C4F844310A23C4F84831642011
:100C300000F082FFD4F84801C0F3807010BD00BFFF
:100C40000000204008B501F03BF808BD00207047C7
:100C5000014B1868704700BF409D0020024BD3F83D
:100C60006005C00F704700BF00102040034AD2F853
:100C7000603543F00043C2F86035704700102040F3
:100C8000062916D84B23CB4013F0010F17D00328A9
:100C900025D8FF291AD901F01F01124B00F140029B
:100CA00043F8221000F59060042243F82020002031
:100CB0007047B1F5897F04D2B1F5887FE7D201BED4
:100CC000E5E740F213139942F9D1E0E701F007019B
:100CD00000F59060034B43F8201000207047024855
:100CE000704700BF0000204001004A000246032870
:100CF00000D901BE02F59063074951F8230000F0C6
:100D00000700042800D07047403251F8220000F05C
:100D10001F0040F48070F6E70000204008B503286B
:100D200000D901BEFFF7E2FF06280DD9B0F58A7F92
:100D300046D2B0F5887F11D3A0F5887003283BD840
:100D4000DFE800F028321E14062805D8DFE800F09E
:100D50003608040B04041B00002008BD0020FCE73B
:100D6000FFF776FFF9E7FFF76DFFF6E7154BD3F8CE
:100D70002835002B01DB0020EFE74FF40040ECE7C3
:100D8000FFF764FFE9E7FFF769FF08B90020E4E730
:100D90000D48E2E70B4BD3F84835002B01DB002070
:100DA000DBE74FF40040D8E7FFF720FF08B9002049
:100DB000D3E74FF40040D0E70020CEE70348CCE76C
:100DC0000020CAE700102040006CDC0200127A000C
:100DD000024BD3F83005C00F704700BF0010204011
:100DE000024BD3F8400500F001007047001020408E
:100DF00010B5164AD2F8383523F0405343F000536B
:100E0000C2F838356424114BD3F83835C3F3017375
:100E1000022B05D024B1012000F08EFE013CF2E748
:100E20000CB90B4810BD022000F086FE074BD3F82A
:100E3000302522F00042C3F83025D3F83C2522F0BB
:100E40000042C3F83C250020ECE700BF0010204022
:100E500002004A0010B5044600286DD0FFF7B8FF25
:100E600000286DD12368B3F5802F00D301BE23681D
:100E7000C3F31103E279002A60D04FF0807213436C
:100E8000304AC2F83035A388B3F5005F00D301BE05
:100E90002389FF2B00D901BEA388C3F30C03228949
:100EA000120402F47F021343264AC2F83435A37AAF
:100EB0000F2B00D901BEE37A0F2B00D901BEA38905
:100EC000B3F5005F00D301BEA37A03F00F03E27A0B
:100ED0001201D2B21343A1891B4A02EA0122134331
:100EE000A27B120702F040521343164AC2F838356B
:100EF000A379042B00D901BE238AB3F5007F00D368
:100F000001BE1049D1F83C3523F4E063A279120206
:100F100002F4E0621343C1F83C35D1F83C3523F0CC
:100F2000FF7323F48033208A084A02EA0042134305
:100F3000C1F83C35002010BD01BE8FE700229EE7BE
:100F40000348F8E70010204000FF1F000000FF01E9
:100F500003004A00034638B31449D1F83025C2F3E0
:100F600011001860C2F30062DA71D1F83425C2F3BF
:100F70000C009880C2F307421A81D1F8382502F09C
:100F80000F009872C2F30310D872C2F30C2098813C
:100F9000C2F301729A73D1F83C25C2F30221997110
:100FA000C2F308421A82704701BED5E70010204004
:100FB00038B50546214AD2F83C3543F00043C2F823
:100FC0003C35044603E0012000F0B6FD013C1B4B1C
:100FD000D3F8403513F0040F01D1002CF3D1174A98
:100FE000D2F8383523F0405343F00053C2F8383577
:100FF00005B15CB1114AD2F8303543F00043C2F874
:10100000303503E0012000F097FD013CFFF7E8FEDA
:1010100008B9002CF6D105B15CB1084AD2F83835D0
:1010200043F04053C2F838350DB12CB100252846A5
:1010300038BDFFF7DDFEF7E7014DF8E7001020406F
:1010400002004A0070B586B0002301930293039317
:101050000493059301A8FFF77DFFFFF7B9FE38B1B0
:101060009DF81230022B01D0012102E0002100E0A6
:101070000021019DBDF8084020469DF80B3083B14A
:10108000022681B184B10020FFF748FEA0FB0501D4
:10109000A4FB06235408001941F1000100F01CFED6
:1010A00002E00126EDE7002006B070BD38B5044629
:1010B000032800D901BE2046FFF730FE05460CB1DB
:1010C000284638BDFFF784FE0028F9D0FFF7BAFFA5
:1010D0000546F5E7F8B50546FFF75CFD0646012332
:1010E00003FA00F72846FFF72BFDFFF7DFFF044662
:1010F0002846FFF75DFD20B904EB570424FA06F0FB
:10110000F8BD0148FCE700BF00127A0010B50446A4
:10111000FFF7E0FF032C19D8032C03D8DFE804F015
:1011200008080406002304E00A4B02E00A4B00E032
:101130000A4B83420CD30A4A04F5926452F82430D5
:1011400043F0004342F82430002010BD0548FCE77E
:101150000548FAE7006CDC0200366E0100D8B805DD
:101160000000204001004A0003004A00013907291D
:1011700005D8DFE801F0060E0417040404120B483A
:1011800070470B4B1B787BB90A4B01221A70002069
:1011900070470020074B18707047064B00221A70EA
:1011A000024870470020704700487047FF00420027
:1011B0003C9D0020449D002010B588B0864610F468
:1011C0007F4F13D10723734512D90DF1040C0A4C3C
:1011D0000FCCACE80F0094E807008CE8070008ABE0
:1011E00003EB8E0E5EF81C0C08B010BD0023EAE77E
:1011F0004FF0FF30F8E700BFE4F803202DE9F0439B
:1012000085B005460C46174600230393060AB0F541
:10121000E06F00D301BE3046FFF7CEFF44B9032E86
:1012200015D8F2004FF4A063D340DBB2BB4206D81E
:10123000012C0ED0022C18D0032C22D001BEB0F10C
:10124000FF3F2BD10026304605B0BDE8F0830023D8
:10125000ECE7032E05D8F2004FF48063D340DBB2F5
:1012600000E00023BB42EAD8E4E7032E07D8F200EF
:101270004FF00223D340DBB2BB42E0D8DCE70023CF
:10128000FAE7032E08D8F30040F2011222FA03F322
:10129000DBB2BB42D3D8D1E70023FAE7FFF71AFF4E
:1012A0000646012C20D9A31EDBB2012BCBD84FF070
:1012B0000008CDF808804FEAD069460102AB0093E0
:1012C00003AB3A4621462846FFF780F9039B0133DA
:1012D000029A02EB431250088019434649F100017B
:1012E00000F0FAFC0646AEE73A4621462846FFF7EC
:1012F000BFF80130039006EB5006B6FBF0F6A2E70C
:10130000124BD3F81011D3F80021022804D006287C
:1013100002D00A2800D001BE062805D00A2807D02E
:1013200002280ED001BE06E0122245F2120102E0B0
:10133000132244F21301054BC3F81011C3F8002126
:101340007047122246F21201F5E700BF00201C4050
:101350000D4BD3F8102102F44062D3F8101121F4A0
:101360004061C3F81011D3F81011D04300F440606D
:101370000143C3F81011D3F8100100F44060801A43
:1013800018BF0120704700BF00201C4008B5052889
:1013900013D006281FD0012801D0164808BD05210A
:1013A000154800F04DFC0521144800F049FC0221CD
:1013B000134800F045FC0020F0E702210E4800F041
:1013C0003FFC00210D4800F03BFC02210C4800F0DE
:1013D00037FC0020E2E70021074800F031FC002143
:1013E000064800F02DFC0021054800F029FC0020F3
:1013F000D4E700BF0100420000102140005010401F
:101400000000104008B5084800F013FC022806D080
:10141000052806D008B1002008BD0620FCE70520FD
:10142000FAE70120F8E700BF0010214008B50A4B99
:10143000D3F80028D3F8043802B13BB9FFF7E2FF34
:10144000052805D0062805D1012008BD0220FCE7AB
:101450000020FAE70220F8E70010204008B5FFF767
:10146000E5FF00B908BD064800F0DBFB054800F0C9
:10147000D8FB054800F0D5FB0120FFF787FFF1E717
:1014800000102140005010400000104010B56424AE
:10149000074BD3F80C3C002B05DB24B1013C0120A9
:1014A00000F02EFBF4E70CB1002010BD0148FCE772
:1014B000001020400200420008B503781F2B00D91D
:1014C00001BE4378012B02D0112B00D001BE43791D
:1014D000012B00D901BE037803F01F0342781202EA
:1014E00002F4F8521343104AC2F8003C8378ABB1BF
:1014F0004FF08053C2789AB14FF080421343027983
:1015000082B14FF000421343074AC2F8043C4379CA
:10151000DB07C2F8083CFFF7B9FF08BD0023E9E785
:101520000022EBE70022EEE700102040012800D95E
:1015300001BE28B9054BD3F8100CC0F30350704717
:10154000024BD3F8140CC0F3034070470010204046
:1015500010B50C46012800D901BE23781F2B00D9F5
:1015600001BE6378012B02D0112B00D001BE23797C
:10157000022B04D0062B02D00A2B00D001BE664AF3
:10158000D2F8043C43F00053C2F8043C28B323785B
:1015900003F01F036278120202F4F8521343227917
:1015A000120402F470221343E279002A00F0B080A2
:1015B0004FF080421343227A002A00F0AB804FF0B4
:1015C00000421343544AC2F8143C534AD2F8043C34
:1015D00023F00053C2F8043C10BDFFF7A7FF637966
:1015E000022B04D0062B02D00A2B00D001BEA37818
:1015F0001F2B00D901BEE378012B02D0112B00D0A4
:1016000001BE237983422DD383425BD9227802F035
:101610001F026178490101F478710A431B0503F444
:1016200070031343A278920202F4F8421343E27863
:10163000D20302F4782213436279920602F07052C8
:101640001343A279002A3BD04FF000421343324AA1
:10165000C2F8103CFFF77CFE0028B6D02079FFF7D7
:101660004FFEB2E7FFF774FE20BB237803F01F03A1
:101670006278520102F4787213432279120502F45F
:1016800070021343A278920202F4F8421343E27804
:10169000D20302F4782213436279920602F0705268
:1016A0001343A27952B14FF0004213431A4AC2F8D1
:1016B000103C8AE72079FFF723FED6E70022F4E703
:1016C0000022C3E7227802F01F026178490101F489
:1016D00078710A431B0503F470031343A278920246
:1016E00002F4F8421343E278D20302F4782213435F
:1016F0006279920602F070521343A27932B14FF030
:1017000000421343044AC2F8103C5EE70022F8E7A7
:1017100000224FE7002254E70010204000283CD070
:101720000246C368002B3AD00368002B39D090F8EA
:1017300004C01E4B53F82C1039B310B40C4600E013
:1017400019464B693BB1914205D0187E117E884203
:10175000F6D81C46F4E7914225D0236943B163696A
:101760005361146103B11A616261012010BC7047BA
:10177000117E237E9942F2D25461002313612261CB
:101780000A4B43F82C200120F0E7084B43F82C00CB
:10179000002343610361012070470020704700204F
:1017A0007047002070470020E0E700BF6C9D0020DC
:1017B00070B582B006460D46062800D901BE6B1EE4
:1017C000DBB2012B07D9102D04D82B4BEB4013F0C3
:1017D000010F00D101BE294B53F82640042D1DD026
:1017E000012D1DD0022D31D026466469002CFBD17D
:1017F000002032E06469BCB1214B984212D0A3684A
:101800001D42F7D1E3681A6800925B680193236870
:101810002946684698471B4B1C60EBE70020EAE727
:101820000020E8E7012DEAD1012D01D002B070BD02
:10183000134B984204D0144B002243F82620F5E7BE
:10184000104B1A68104B43F82620EFE70D4B1E682B
:10185000002ECDD03669CBE73669002EE6D0B368CE
:101860001D42F9D1F3681A6800925B6801933368EE
:10187000294668469847EFE7100101006C9D00205B
:10188000FF004200689D00204C9D002070B504467A
:10189000012800D901BE184B1B681BB30121002091
:1018A000FFF786FF064608BB00F023F90546124BFA
:1018B0001B681BB104210020FFF77AFF0F4A136950
:1018C00023F004031361012C0ED030BF284600F032
:1018D00014F9094B1B681BB108210020FFF768FFB2
:1018E000304670BD0026DFE720BFEFE70221002071
:1018F000FFF75EFF024EF3E76C9D002000ED00E075
:10190000FF00420008B500F0F4F8074B9A68074959
:101910000A4042F468529A609A680A409A609B684A
:1019200000F0EBF808BD00BF00102040FF00FC0FE6
:10193000024B9868C0F34040704700BF0010204041
:1019400008B500F0D6F8044A536843F0804353606A
:1019500000F0D3F808BD00BF00102040024B5868CB
:10196000C0F38070704700BF00102040024B186821
:10197000C0F34010704700BF00102040F8B5064685
:10198000FFF740FD0446012E00D901BE012C04D012
:10199000052C02D0062C00D001BEFFF7E7FF00287F
:1019A00043D0234B53F824307BB301212046FFF76B
:1019B000FFFE0546F8B900F09CF807461C4B53F8AB
:1019C00024301BB104212046FFF7F2FE194A1369A7
:1019D00043F004031361012E1CD0052C17D030BF37
:1019E000134B53F824301BB110212046FFF7E0FEC3
:1019F000384600F082F87DB90D4B53F82430ABB176
:101A000008212046FFF7D4FE10E00025D3E7C2F7F7
:101A100029F8E5E720BFE3E7054B53F824302BB165
:101A200002212046FFF7C4FE00E0034D2846F8BD22
:101A30006C9D002000ED00E0FF004200024B0122FF
:101A4000C3F81428704700BF00102040084B9A6864
:101A5000084B9A420AD139B100F11003054A52F8F5
:101A6000230042F82310704701BEF5E700207047BD
:101A700000ED00E00010002038B308B5844643684C
:101A8000072B00D901BEBCF90030DCF80420002B84
:101A90000EDB5201D2B203F1604303F5614383F8D8
:101AA00000230B4B9A680B4B9A4208D0002008BDCC
:101AB00003F00F035201D2B20748C254F1E7BCF958
:101AC0000000FFF7C3FF0020F1E70448704700BFA4
:101AD00000ED00E00010002014ED00E001005600D1
:101AE0000230800803D001300238FCD100BF00BFB3
:101AF0007047EFF3108072B6704780F3108870471C
:101B000038B504460B4B1B684FF0FF35B5FBF3F5BA
:101B100006E0084B186805FB00F0FFF7E1FF641BC7
:101B2000AC42F6D8034B186804FB00F0FFF7D8FF6F
:101B300038BD00BF7C82002008B5034B1B7803FB37
:101B400000F0FFF7CDFF08BD8082002008B5FFF749
:101B5000F3FF08BDFEE7000008B502680E4B1A62ED
:101B600042685A6282689A62C268DA6202691A63DB
:101B700042695A6382699A63C269DA63074A916A61
:101B80001964D16A5964516A9964516BD964926B32
:101B90001A65FFF7DFFF08BD9485002000ED00E027
:101BA0007047000021B101231843024B18617047B0
:101BB0000023F9E700102240014B1878704700BF5E
:101BC000459D0020014B00221A707047459D002062
:101BD000034630B100221A643F221A63024A9A6314
:101BE000704701BEF6E700BFBFFF07FF034670B1B5
:101BF0000A2900D901BE1A6822F00F02114341F4EC
:101C0000807119609A6812F4807FFBD0704701BE22
:101C1000EEE7034618B1186800F00F00704701BEE8
:101C2000F9E708B518B1FFF7D3FF002008BD01BEE2
:101C3000F9E708B510B1FFF7ECFF08BD01BEFAE700
:101C400008B538B10A2900D901BEC9B2FFF7CEFFE5
:101C5000014808BD01BEF5E7030042000A44431EE7
:101C6000914200D1704710B511F8014B914203F831
:101C7000014FF9D110BD02440346934200D1704791
:101C800003F8011BF9E7884210B501EB020402D901
:101C90008442234607D8431EA14208D011F8012BE5
:101CA00003F8012FF8E7024401468A4200D110BD33
:101CB00013F8014D02F8014DF7E7000000000000A5
:101CC0005FF800F05DD900085FF800F009DC00085B
:101CD0005FF800F0215100085FF800F0E9B7010853
:101CE0005FF800F09926000800F9032000000000CA
:101CF00000000000000000000000000000000000E4
:101D000000000000000000000000000004AF01001F
:101D100078AE0100B0AD0100B0AD010046C90100D0
:101D2000B4010000450200000403000006040000A6
:101D30002805000000000000010000000000000075
:101D4000010000000200000003000000010000008C
:101D50000000000000000000000000000000000083
:101D60000000000000000000000000000000000073
:101D70000000000000000000000000000000000063
:101D80000000000000000000000000000000000053
:102600000348044B834202D0034B03B11847704781
:102610006C8500206C85002000000000064B0749F7
:10262000C91A891048BF0131491003D0044B0BB1BE
:1026300001481847704700BF6C8500206C8500205A
:102640000000000010B5064C237843B9FFF7D8FF0F
:10265000044B13B10448AFF300800123237010BD75
:10266000E885002000000000908F020808B5054BA7
:102670001BB105490548AFF30080BDE80840FFF7EE
:10268000CDBF00BF00000000EC850020908F020845
:10269000A3F5803A704700BF174B002B08BF134BC0
:1026A0009D46FFF7F5FF00218B460F461348144A5D
:1026B000121A1CF079FE0E4B002B00D098470D4BE0
:1026C000002B00D098470020002104000D000D4889
:1026D000002802D00C48AFF300801AF069FA2000FD
:1026E000290000F02FFE19F015FA00BF00000800C5
:1026F0000000000035DE032000100020E8850020E7
:10270000ACA20020000000000000000008B500F0AE
:102710000DF808BD08B500F087F808BD08B5FFF74B
:10272000F5FFFFF7F7FF08BDFEE7000008B51CF056
:1027300027FE38481CF09CFE374900201CF0F8FDAD
:10274000364901201CF0F4FD01201CF099FF1CF01B
:102750002FFF1CF0C9FF1CF03BFF00284ED00320C8
:102760001CF0D2FF1CF030FE062101201CF064FF9B
:10277000062102201CF060FF002103201CF05CFFFA
:10278000002101201CF0F4FD002101201CF0C8FFF5
:1027900001201CF091FF022108461CF0E9FD0021F8
:1027A00002201CF0BDFF02201CF086FF0121032047
:1027B0001CF0DEFD012103201CF0B2FF03201CF001
:1027C0007BFF01201CF00CFF00201CF05DFE0621A9
:1027D00000201CF031FF12481CF00EFF88B9114890
:1027E0001CF082FE88B9002108461CF0C1FD0021C2
:1027F00008461CF095FF1CF02FFE08BD1CF0CCFE17
:10280000ADE70420FFF790FFE9E70420FFF78CFF16
:10281000E9E700BF88810020908100209C81002092
:10282000ACF80108400D030008B5064805F098F91A
:10283000054805F095F9054805F092F9044805F0BA
:102840008FF908BDC0F80108C4F80108C8F80108EC
:10285000CCF8010810B505F081F9044630B14CB14F
:10286000FFF75CFF64B17CB1204610BD07F0F0F9C2
:102870000446F4E740F6E441002007F0F3FAEFE7FE
:1028800000F00AF80446EEE700F010F80446EBE723
:1028900008B501F097F908BD08B5012102481CF000
:1028A0006FFE002008BD00BFA881002010B582B0D7
:1028B00000230093694601A800F038F8009890B111
:1028C000019B1B688BB1002400E00134009BA342F4
:1028D00008D9019B53F824001CF0C6FD0028F4D150
:1028E000034800E0002002B010BD0020FBE700BF5D
:1028F0000000020604290FD008D9082910D108B514
:10290000012108481CF03CFE002008BD0139C9B275
:10291000012903D904487047002070470020704700
:1029200001487047A8810020FF00420000230B608F
:10293000024B036005230B60704700BFB08100208D
:10294000002301E00133DBB2094A11889AB29142B7
:102950000BD903EB4302074931F822208242F1D11F
:1029600003EB430C01EB8C0070470020704700BF65
:10297000CCF701081C7E002038B50546002405E090
:10298000295D064819F08AFE0134E4B2042CF7D917
:102990006979034819F082FE38BD00BFD0F80108FC
:1029A000D8F8010808B502F06AFD08BD08B502F0C4
:1029B00056FD08BD08B5124810F0F5FD0146114856
:1029C00019F06CFE0022104B1988104810F0A8FD79
:1029D00001460F4819F062FE0021084610F0FEFC87
:1029E0000C49032010F09AFC00221146032010F03D
:1029F00085FC00B908BD084819F0B6FE01BEF9E72C
:102A0000052F0008E0F8010882F80108D0F7010856
:102A100010F90108F87D00203CF9010870B584B078
:102A200004460D462D4B93E803000290ADF80C10C0
:102A300021462B4819F032FE212C45D8DFE804F05E
:102A4000131144444A44444A44444444444444449E
:102A500044444444441144442B4444444444444482
:102A6000333D00241CE02C887CB9002102A810F022
:102A700087FC02A810F067FC1A4819F00FFE02A8A4
:102A8000FFF77AFFFFF796FF0AE02146164819F094
:102A900005FE002404E02978144819F0FFFD002405
:102AA000204604B070BDAB8900936B892A892978D0
:102AB0000F4819F0F3FD0024F2E72A7AE9790D486E
:102AC00019F0ECFD0024EBE721460B4819F0E6FD78
:102AD0000024E5E741F6AD74E2E700BFD8FE010847
:102AE00060F901088CF90108B0F90108D8F901086A
:102AF00008FA0108C8FA01081CFB01082DE9F04F8B
:102B000085B081468A4616461F46B2F800B0184680
:102B1000FFF74CFF00238DF80F30E8B18046002509
:102B2000321D7188584610F0BBFC044678B3FFF79D
:102B300007FFE8B1826801928388009323460DF174
:102B40000F02791B08EB050010F010FDF8B10544E9
:102B500001341FFA84FBE3E739461D4819F09EFD56
:102B600011235A465146484610F0C1FC11201AE084
:102B70005946184819F092FD0E23328851464846AE
:102B800010F0B5FC4046FFF70DFF01200BE06DB1E2
:102B9000114B0193CDF80080ABB29DF80F20514648
:102BA000484610F048FC05B0BDE8F08F33897288C4
:102BB00031880A4819F072FD01233288514648468F
:102BC00010F095FC4046FFF7EDFE0120EBE700BF5B
:102BD00040FB010870FB0108A5290008A4FB0108BF
:102BE00070B504460E46154600232CE0082D01D092
:102BF0000D204FE0294819F051FD002405E0315D1A
:102C0000274819F04BFD0134E4B2032CF7D92548CD
:102C100019F0AAFD00203DE0022D3CD13378224A74
:102C20001370012B03D00020204B187032E01F4B93
:102C300001221A7000202DE021461D4819F02EFDBA
:102C4000012027E001331B4AB2F800C09C451CDD7F
:102C500003EB430C184A32F82C20A242F2D1164A58
:102C600002EB8C025288AA42E6D3134A02EB8C0193
:102C70008D800B462A46314698681CF0ADFB092C26
:102C8000B4D00A2CC8D0002004E021460B4819F02B
:102C900005FD032070BD0D20FCE700BF30FC0108DE
:102CA00044FC01084CFC010808860020EC88002048
:102CB00050FC0108CCF701081C7E002080FC0108B4
:102CC00010B582B001461446938800935388128849
:102CD000084819F0E3FCA288A1682088FFF780FF6C
:102CE000044610B9204602B010BD0146024819F052
:102CF000D5FCF7E7ACFC0108F4FC01082DE9F0472E
:102D000082B006460F4614469846B2F800A05046D8
:102D1000FFF716FE28B381468588009563885246E2
:102D20003146244819F0BAFC6388B9F8042093426C
:102D30001FD2ED1A4545A8BF4546D9F8082002EB39
:102D400003082388092B1CD00C2B2CD000230093C4
:102D50004346AAB23946304610F051FB02B0BDE8F6
:102D6000F087012352463946304610F0C0FB01205F
:102D7000F4E7072322883946304610F0B8FB0720D5
:102D8000ECE70D4A40F2F7310C4800F08CFD20B121
:102D9000094B1A880A4B1A80D8E7074B198809484B
:102DA00019F07CFCF4E7084A1378591C1170074AA3
:102DB0001370CBE720FD0108EE8800203C8A00203C
:102DC0000486002064FD0108F08800200C860020A5
:102DD00038B5044601791E291ED80A290BD20229CA
:102DE00035D0082912D1024632F8080B6388FFF764
:102DF00085FE054629E001238B401A4A1A406ABB2A
:102E000013F4A05F1AD113F4802F07D1164819F0DC
:102E100045FC48F2877518E05229F7D1224632F86E
:102E2000080B6388FFF74CFF0546217912290CD166
:102E300058B92289208810F043FB06E0024632F898
:102E4000080B6388FFF75AFF0546284638BD17224E
:102E50000189008810F00DFB0546F6E748F28775FA
:102E6000F3E700BF0040004874FD010800283CD093
:102E700010B504468368C3B11D4819F00FFC2068E3
:102E8000FFF77AFDE1881B4819F008FCE2881A4B2D
:102E90001A800124194B1C70FF21002000F0A6FDB0
:102EA000204600F08DFD002010BD154819F0F6FBFE
:102EB0002068FFF761FDE1880E4819F0EFFB002163
:102EC0000D4B19800A46032010F018FA00B101BE1C
:102ED00000240A4B1C706FF07F41204600F086FDF5
:102EE000012000F06DFD2046DEE748F28770704754
:102EF000A0FD0108CCFD0108EA880020E888002038
:102F0000F4FD010810B50C46072822D8DFE800F0D0
:102F1000042121210E21131B0846FFF7A7FF0446B9
:102F2000C0B101460D4819F0B9FB13E00846FFF7A0
:102F30004FFF04460EE00888FFF738FD6060084B3D
:102F4000A360002406E04B6833B10868984700246A
:102F500000E00024204610BD0024FBE720FE01080D
:102F6000A529000800B583B020B101281CD003B00A
:102F70005DF804FB194B1B78012BF8D1184B1B880B
:102F80009BB2002BF3D0164B1888164A00230093EF
:102F9000136A928B092180B21CF092FA0028E6D0C5
:102FA000114819F0E1FBE2E7104B1B78012BDED151
:102FB0000B4B1B889BB2002BD9D0094B1888094AB0
:102FC00000230093936B928E0C2180B21CF078FA50
:102FD0000028CCD0064819F0C7FBC8E708860020B7
:102FE000EA8800201C7E002048FE01081086002090
:102FF00070FE010800B583B04FF4FA601CF0E4FAEB
:103000002849294800F033FC98B9284819F0ACFB4E
:10301000274A40F2F731244800F045FC70B1002106
:1030200000910423224A12882248006802F082FE9E
:103030001DE0214819F032FB01BEE6E71C4B198860
:103040001E4819F02BFBEAE7194B19881B4819F0A9
:1030500025FB14E0002100910423154A128815482D
:10306000006802F067FE4FF4FA601CF0ADFA104AF7
:1030700040F2F7310C4800F016FC0028E4D00C4B6D
:103080001A880F4B1A800F4B1B78002BE2D00E4B87
:103090001B78012BDED100200C4B1870FFF762FF6C
:1030A000D8E700BF748900203C8A0020C4FE0108D4
:1030B000EE880020288A0020A0FE010864FD010897
:1030C00004860020E8880020EC8800207089002019
:1030D00001207047024B5B681B689B69586A704708
:1030E0007481002000B583B00A4600230193094B88
:1030F0005B6801A918681CF0FBFA38B1054B5B68E6
:103100001B689B69986903B05DF804FB019BD86854
:10311000F9E700BF7481002010B582B00846064967
:1031200049680968054C01940092024604481CF065
:10313000EBF802B010BD00BF748100208C87002026
:103140000000894010B582B0084606494968096800
:10315000054C01940092024604481CF0DDF802B0D0
:1031600010BD00BF748100208C87002000008940C2
:1031700000B583B013460A4631B90B49496809685E
:103180008869406898420AD0074949680968074831
:10319000009007481CF020FA03B05DF804FB034AD6
:1031A00003481CF009F9F7E7748100208C870020A0
:1031B0000000894038B51CF02BFAD0B9134B5B687E
:1031C0001B689B699A699200114B1B689B69D96CBB
:1031D000A1B95C68A41A0F4B21460F4803F08EFE7C
:1031E000054668B101460D4819F058FA01BE284657
:1031F00038BD0B4819F0B8FA01BEDFE70024EAE752
:103200002146084819F04AFAF1E700BF748100200E
:103210008481002084820020F488002008FF0108B7
:10322000E0FE010840FF0108024A137883F0010321
:10323000137070477089002000B585B000F09EFBC8
:1032400070B9354819F090FA012000F0B3FB6FF027
:103250007F41002000F0CAFB012000F0B1FB2BE011
:103260002E4819F081FA01BEEBE7A3F25922C72AD2
:1032700017D9A3F22132C72A38D9A3F2E932B2F51D
:10328000C87F3ED3B3F5AF6F16D9254819F06CFA55
:103290004FF47F01002000F0A9FB012000F090FB1B
:1032A0000AE0204819F060FA4FF47F41002000F056
:1032B0009DFB012000F084FB4FF0FF33009303AB34
:1032C00000221146104602F0D9FC039BA3F2911292
:1032D000C72ACAD8144819F047FA4FF47F41002092
:1032E00000F084FB012000F06BFBE5E70F4819F0CC
:1032F0003BFA0F49002000F079FB012000F060FB51
:10330000DAE70C4819F030FA0B49002000F06EFBA8
:10331000012000F055FBCFE798FF010880FF01086E
:1033200004000208C8FF0108ACFF0108DCFF010827
:1033300000FFD000F0FF010800A5FF0000B101BEB2
:103340007047000010B584B000248DF80840ADF837
:103350000A403E4B0393FFF77DFAFFF7EFFF4FF470
:10336000E1330093FF231A461A211B200AF0DCFCEC
:10337000FFF7E4FF62B6364819F0F6F9354819F060
:10338000F3F9354819F0F0F90123062219462A20ED
:1033900004F078FAFFF7D2FF01230322214605202B
:1033A00004F070FAFFF7CAFF2C492D4B0B60052083
:1033B00004F0D4FA012307220221052004F0F4FAD4
:1033C000234620222121274804F0F4FD00B101BE4C
:1033D00002A9244804F064FE00B101BEFFF7EAFE32
:1033E00050B3214801F00EF92049214801F0DEF8E0
:1033F00030BB204819F0B8F9002301930222009253
:103400004FF480621C491D481BF0CAFF012800D000
:1034100001BE1B4B01930223009300234FF4007263
:10342000184919481BF0BCFF012800D001BE1BF051
:103430006FFF002004B010BD144819F095F9D0E7D3
:10344000134819F091F901BED6E700BF801A0600B3
:103450001C0002085C0002087C0002082C8A002084
:10346000293200087489002084F8010894F70108C3
:103470001D2A0008D80002082C010208F52F0008B8
:10348000288A00203401020839320008BC000208F2
:1034900004010208F0B589B00E4615461C460746E1
:1034A000003818BF012000F04FFA3868003818BF04
:1034B000012000F049FA102E8CBF0020012000F0FE
:1034C00043FA281E18BF012000F03EFA601C1028A5
:1034D0008CBF0020012000F037FA8DF80C6000212D
:1034E00009E0481C15F801C001F121030DEB0301AF
:1034F00001F814CCC1B2A142F3D30023019300938D
:10350000631C03AA2821386800F0EBF909B0F0BD6C
:1035100070B584B014461D468DF80F10064600386D
:1035200018BF012000F010FA3068003818BF0120E1
:1035300000F00AFA9DF80F0010288CBF002001202F
:1035400000F002FA201E18BF012000F0FDF90195DD
:10355000009401230DF10F022821306800F0C1F919
:1035600004B070BD2DE9F0410D4614461E460746D5
:10357000003818BF012000F0E7F9201E18BF012015
:1035800000F0E2F9D7F8088033462246294638464B
:10359000C0470446052000F0D0F92046BDE8F08180
:1035A0002DE9F0410D4614461E460746003818BF67
:1035B000012000F0C9F9201E18BF012000F0C4F955
:1035C000D7F804803346224629463846C047044689
:1035D000052000F0B2F92046BDE8F08138B50C4670
:1035E0000546003818BF012000F0AEF9201E18BFB4
:1035F000012000F0A9F90123224604212846FFF703
:10360000CFFF38BD10B582B001910446003818BF15
:10361000012000F099F9012301AA04212046FFF7B7
:10362000A1FF02B010BD38B50C460546003818BFE2
:10363000012000F089F9201E18BF012000F084F954
:103640000123224607212846FFF7AAFF38BD70B59F
:1036500082B00C460646003818BF012000F074F90D
:10366000201E18BF012000F06FF901A93046FFF7B6
:10367000DAFF054628B99DF8043013F0100F03D186
:103680000725284602B070BD022322460521304698
:10369000FFF786FF0546208800F053F92080F0E709
:1036A00010B582B0ADF806100446003818BF0120EE
:1036B00000F04AF9BDF8060000F043F9ADF8060045
:1036C00002230DF106020B212046FFF74BFF02B04B
:1036D00010BD10B582B08DF807100446003818BF31
:1036E000012000F031F901230DF1070210212046DD
:1036F000FFF738FF02B010BD30B583B00546003883
:1037000018BF012000F020F9A5238DF80730012310
:103710000DF107020F212846FFF724FF034630B1C1
:1037200093BB9DF80730A52B0AD001242DE001237F
:103730000DF107020F212846FFF732FF0346EFE79E
:10374000A3212846FFF7C5FF04464FF4FA6000F0B6
:10375000F4F884B1CCB99DF8073013F0080F17D1F5
:1037600013F0100F16D113F0200F15D113F0800FA6
:103770000BD1032409E001230DF107021946284665
:10378000FFF70EFF0446E5E70124204603B030BDF5
:103790000424FAE70524F8E70624F6E738B50D46D1
:1037A0000446003818BF012000F0CEF8281E18BFCC
:1037B000012000F0C9F82560034B6360034BA36050
:1037C0002046FFF799FF38BD1135000895340008F1
:1037D00010B584B0ADF806100446003818BF0120BB
:1037E00000F0B2F8BDF80630053B9BB240F6FA7027
:1037F00083428CBF0020012000F0A6F803A92046D8
:10380000FFF7ECFE20B99DF80C3013F0030F03D145
:1038100068B1D0B104B010BD9DF80C306FF3010356
:103820008DF80C3003992046FFF7ECFEF0E7BDF869
:10383000060000F086F8ADF8060002230DF106023E
:1038400019462046FFF78EFEE3E79DF80C30022272
:1038500062F301038DF80C30DBB2012262F38303C3
:103860008DF80C3003992046FFF7CCFED2E710B557
:10387000044660B169B12046FFF790FF034650B19E
:103880007BB198B240F0E56040F4003010BD01BE5D
:10389000F0E701BEEFE70A212046FFF799FF034654
:1038A000EEE70020F2E738B50C461146054660B158
:1038B00069B12846FFF7CBFE034650B17BB198B201
:1038C00040F0E56040F4003038BD01BEF0E701BED5
:1038D000EFE721462846FFF7E3FE0346EEE7002028
:1038E000F2E770B582B00C46069D064608B312B3E7
:1038F000B5FA85F1490901914FF4FA7100919BB233
:103900002146304604F0E6FB034668B965B1012361
:1039100001934FF4FA730093BDF81C302A462146F8
:10392000304604F023FC0346181E18BF012002B0E5
:1039300070BD01BEDBE701BEDAE708B506F09CFA10
:1039400008BD40BA80B2704700B901BE704700227E
:10395000134605E00632D2004000C0B20133DBB2AC
:10396000062B04D810F0800FF4D10432F3E710F0E6
:10397000800F01D1101D7047901D704700B587B0B2
:10398000002304930393082202920193FF220092E2
:1039900013460A21054805F0DBFE10B107B05DF8BB
:1039A00004FB0349014805F0D9FDF7E7488A0020E8
:1039B000009F2400014B1860704700BFB88A0020A8
:1039C00000B9704700B583B00023019300930A2229
:1039D0000449054805F09AFF46201BF0A1FD03B0FD
:1039E0005DF804FBBC8A0020488A00202DE9F04FD6
:1039F00083B004460191244B1F6817BB0020FFF7DA
:103A0000A6FFC0F30749C0F30728C5B228464246BF
:103A100049462E46C246CB4604EBC40401341B4F34
:103A20003B1907F804B083F801A09E7083F8039057
:103A300083F804805D719971DA71187203B0BDE882
:103A4000F08F019EC6F30720B0FBF7F0FFF77FFF72
:103A5000C0F30749C0F30728C5B2C6F30740B0FB5F
:103A6000F7F0FFF774FFC0F3074BC0F3072AC6B2A5
:103A70009DF80400B0FBF7F0FFF769FFC0F30741C2
:103A8000C0F30722C0B2C7E7B88A0020BC8A002072
:103A9000B0F1FF3F22D008B338B5C50E43011B1A61
:103AA00065F10005AD0045EA93759B001B1845F1D3
:103AB0000005ED0045EA5375DC004FF47A720023EF
:103AC0002046294617F090FE6FF47A73A34240F225
:103AD000E733AB4101D26FF0010038BD704708B544
:103AE00006F0AEF9002008BD034B0360034B0B60EA
:103AF00080231360704700BFE0900020E08A002020
:103B0000034B0360034B0B604FF4807313607047EB
:103B10009C910020E08C002070B582B00446002308
:103B20000193234B1B686BB1214B1B6843B11BF006
:103B30005BFD05461BF00CFD70B928461BF0DCFC54
:103B400002B070BD1B4804F095FD18B9184B194A16
:103B50001A60E9E701BEE7E74FF47A7303FB04F468
:103B6000154BA3FB0434A409FFF7B9FF84420CD81A
:103B700012480028E1D1019BA34200D901BE01985F
:103B8000FFF786FF1BF034FDD7E7261A012301AAB1
:103B900031460748006806F0DFF8094B9842E8D143
:103BA000002301AA31460248006806F0D5F8E0E794
:103BB000C88A0020CC8A0020D34D621000000E0677
:103BC000051A020408B51BF0BFFC1BF0D1FC08BDB0
:103BD00008B502F07BFB03680BB14068984708BD4D
:103BE0002DE9F04784B00C9D002843D00F46904645
:103BF0001C468146B5F5967F3ED313B113F0070FEF
:103C00003ED184B3002606F1C80001F028FC8246AC
:103C1000002837D025F00705AD083CB356440322F1
:103C20000021012001F0C4FCC6F8BC0000B3184B11
:103C3000C6F8C030C6F8C4A016F0070F00D001BE09
:103C4000029601949DF8343000930E9B2A4641461B
:103C5000384601F089FEC9F80000864214D0A8B1A8
:103C600001BE002009E025F00706CCE70446D5E7B1
:103C700001BEDCE7074800E0064804B0BDE8F08775
:103C80000548FAE70548F8E70020F6E70020F4E7E2
:103C900001EFCDAB05000E0606000E0601000E0674
:103CA00010B51BF005FC0446D0F8C020074B9A4223
:103CB00004D001BE20461BF0B3FCFBE700231A46EC
:103CC0001946D0F8BC001BF013FCF3E701EFCDABB5
:103CD00080B110B50446017131B1042001F0AFFC90
:103CE000206028B1002010BD012001F0A8FCF7E7FA
:103CF0000148F8E70148704701000E0605000E066E
:103D000098B110B504460846FFF7C2FE0146237974
:103D10002BB120681BF098FC28B1002010BD206852
:103D20001BF056FBF8E70248F8E70248704700BF6F
:103D300000000E0605000E0688B108B503792BB108
:103D400000681BF025FB40B1002008BD00231A4687
:103D5000194600681BF0CCFBF5E70248F5E702487E
:103D6000704700BF02000E0605000E0628B108B518
:103D7000006801F013FD002008BD0148704700BF36
:103D800005000E0660B110B50B46114604461846F4
:103D900001F038FC206008B1002010BD0148FCE7AC
:103DA0000148704701000E0605000E0630B583B0CD
:103DB0000023019310B30546EFF3058303B1F9B96E
:103DC0000846FFF765FE0146EFF305847CB101AAC2
:103DD0000021286801F03EFCA0B1019BA3B14FF087
:103DE000E0234FF08052C3F8042D002403E028683C
:103DF0001BF0EEFA50B1204603B030BD044CFAE798
:103E0000034CF8E7034CF6E70024F4E7014CF2E733
:103E100005000E0600000E0600B583B000230193D6
:103E2000F0B1EFF3058373B101A900681BF06CFBDF
:103E300001280ED1019B63B14FF0E0234FF0805277
:103E4000C3F8042D05E000231A46194600681BF04C
:103E50004FFB18B1002003B05DF804FB0148FAE7FE
:103E60000148F8E702000E0605000E0648B110B53D
:103E7000044601F084F9206008B1002010BD02481A
:103E8000FCE70248704700BF01000E0605000E0661
:103E900010B582B0F8B1EFF30584B4B100220192FD
:103EA00001AA006801F04EFA012802D058B100249E
:103EB0000EE0019B002BF9D04FF0E0234FF0805231
:103EC000C3F8042DF2E7054C02E0006801F0D5F9D3
:103ED000204602B010BD024CFAE700BF02000E06F9
:103EE00005000E06F8B12DE9F04182B00C461546EA
:103EF0001F468046C9B10898FFF7CAFD26680090A2
:103F00003B462A463146D8F8000001F046F92060C9
:103F100000EA060236EA00000BD087F0010752B132
:103F20004FB1002002E005487047044802B0BDE8E8
:103F3000F0810020FAE70248F8E700BF05000E060E
:103F400000000E0628B108B5006801F0D7F900207E
:103F500008BD0148704700BF05000E0668B110B5E6
:103F60000B46114604460022184601F021FB206052
:103F700008B1002010BD0248FCE70248704700BFAE
:103F800001000E0605000E0640B330B583B00C46A6
:103F9000054629B300230193EFF305837BB100238A
:103FA00001AA00681BF0C8F9012811D1019B7BB15F
:103FB0004FF0E0234FF08052C3F8042D08E0104684
:103FC000FFF766FD02460023214628681BF090FAA1
:103FD00010B9044803B030BD0020FBE70248704729
:103FE0000148F7E702000E0605000E0630B330B5B3
:103FF00083B00C46054619B300230193EFF3058304
:1040000073B101AA006801F025FB012810D1019BC2
:1040100073B14FF0E0234FF08052C3F8042D07E056
:104020001046FFF735FD0246214628681BF030FB9D
:1040300010B9044803B030BD0020FBE702487047C8
:104040000148F7E702000E0605000E0678B110B52C
:104050000C4671B1EFF305822AB1006801F04FFB05
:104060002060002010BD00681BF0EEF9F8E7024860
:1040700070470148F6E700BF05000E0628B108B5F5
:10408000006801F08BFB002008BD0148704700BFAD
:1040900005000E0628B32DE9F04182B00F46144604
:1040A0001D468046FAB1082017F046FD0646E0B1ED
:1040B0000460456077B901220D4B0093334601211E
:1040C0000C4802F0B5F8C8F8000028B1002002B092
:1040D000BDE8F0810022EFE7304617F035FD0648D5
:1040E000F5E7064870470548F1E70348EFE700BFEA
:1040F000D13B00086CFB010801000E0605000E060E
:10410000F8B110B582B004460846FFF7C1FC02467C
:10411000002300930421206802F0A6F8012803D0B0
:1041200068B1002002B010BD246801F065FC0246B1
:10413000002300930121204602F096F8F0E70248A0
:10414000F0E70248704700BF02000E0605000E06A9
:1041500030B110B5044601F04FFC2060002010BDC6
:104160000048704705000E0608B5FFF791FC1BF0EC
:104170002BFA002008BD000010B582B00446114B98
:104180001B78042B18D800238DF800308DF80130EF
:104190008DF80240230A8DF80330230C8DF804308B
:1041A000240E8DF80540084B6A4606214FF618404C
:1041B0000FF0D4F802B010BD0146044800F0C6FD6F
:1041C000E1E700BFA0820020714200085C6F020896
:1041D00010B50446094B1B78042B09D86420FFF75F
:1041E000C3FF204600F020FF6420FFF7BDFF10BD95
:1041F0000146034800F0AAFDF0E700BFA0820020BE
:10420000806F020810B582B000F010FA0478012C1B
:1042100014BF002401240F4B1B78042B11D80E4B24
:1042200002221A7005F074FD01940123009300230B
:104230000A4A12680A490B4800F0B6FB30B102B0D6
:1042400010BD0949094800F081FDE8E705F074FD5B
:10425000F5E700BFA0820020589200204401020828
:104260007C010208F942000848010208A46F020814
:1042700010B500F0DBF90446194B1978012908D074
:10428000042914D0174B1B7863B1174800F05EFD6A
:1042900008E0144B1B78042B05D8A068FFF798FFA3
:1042A000FFF7B0FF10BD114800F050FDF5E70D4BD2
:1042B0001B78042B0CD8E068FFF78AFF094B1B78AA
:1042C000042B09D8064B05221A700FF0BCF9E9E758
:1042D000074800F03BFDEEE7064800F037FDF1E748
:1042E00058920020A082002084700208C86F020843
:1042F0000C7002084C70020810B504462F4B1B7856
:10430000042B0BD8012C0ED02C4B1B78002B4FD13B
:104310002B4B06221A7005F00FFD10BD01462948EF
:1043200000F014FDEEE700F081F90446244B03226F
:104330001A700378012B0CD0204B1B78042B2FD83C
:104340001F4B05221A702378022B2DD00FF07BF91A
:10435000E1E78368B3F5E13F07D0184B1B78042BE6
:1043600014D84FF4E130FFF733FFE168B1F5E13FD6
:10437000E2D0124B1B78042B0ED8114B04221A707A
:10438000E068FFF7F9FE05F0D7FCC6E74FF4E1312E
:104390000D4800F0DBFCE4E70C4800F0D7FCECE74C
:1043A0000B4800F0D3FCCBE7002000F041FDCDE747
:1043B0002146084800F0CAFCAAE700BFA0820020FE
:1043C00058920020B4700208E47002081C710208C0
:1043D000587102089471020810B51D4B1B78042B0C
:1043E0000AD81C4B00221A701B4B1B68934207DC37
:1043F000174B1B7843BB10BD184800F0A7FCF0E733
:1044000000F014F904460378012B06D0104B1B78FA
:10441000042B15D8FFF7F6FEEDE78168B1F5E13F13
:10442000F4D00B4B1B78042B06D80A4B01221A70D0
:10443000A068FFF7A1FEDEE7094800F087FCF4E77B
:10444000084800F083FCE5E7074800F07FFCD2E76E
:10445000A08200205892002044010208C471020882
:10446000DC7102081C7202084C72020800207047BE
:1044700010B504460A4B1B78042B06D863681B78DA
:104480004BB9084B01221A7210BD436819780648CF
:1044900000F05CFCF2E7034B00221A72F4E700BF65
:1044A000A08200205C9200207472020808B50DF012
:1044B000E1F908BD70B50E4602281CD0032812D0C1
:1044C000012807D01F4B1B783BB101461E4800F066
:1044D0003DFC02E01B4B1B7803B970BD09681B480B
:1044E00000F034FCF9E7174B1B78002BF5D0184887
:1044F00000F02CFCF1E71546124B1B780BB9002499
:1045000006E00B680146134800F020FCF7E7013491
:10451000AC4208D20B4B1B78002BF8D0315D0E4813
:1045200000F014FCF3E7B379FF2BD6D1054B1B78D1
:1045300023B90A20FFF718FE01BECEE7074800F0B6
:1045400005FCF6E7A0820020547302089C72020862
:10455000D4720208F87202082C7302083073020841
:1045600008B5FFF7A3FF08BD38B50C46054630B1C6
:10457000064B1B6843B121462846984738BDFFF7D4
:10458000EFFF09F0CFFCF3E70020F7E75C92002093
:1045900008B5034A034904480FF06CF808BD00BF92
:1045A0006D440008F54600086945000870B50546E9
:1045B0000C46104B1B78042B13D80F4E002333727C
:1045C00000F0C0FB356000F03DFB20460FF044F8E2
:1045D00010B9084B1B7843B9204600F027FD002096
:1045E00070BD064800F0B2FBE7E7054800F0AEFBFF
:1045F000F2E700BFA08200205C92002074730208E2
:104600008C73020810B50446054B1B78042B02D8A6
:10461000044B5C6010BD044800F098FBF8E700BF55
:10462000A08200205C920020B4730208014B5868FD
:10463000704700BF5C92002010B584B00023019346
:1046400002930393FFF7F2FF0446254B1B78042BDC
:1046500033D82378012B34D18DF804308DF8053010
:104660008DF806301F4A526892F820108DF8071016
:1046700092F821208DF808208DF809308DF80A3045
:1046800000238DF80B308DF80C308DF80D308DF83F
:104690000E308DF80F30144B01AA0C214FF6274035
:1046A0000EF05CFE41F6A473984217D00C4B1B78B9
:1046B000042B0ED8002004B010BD0C4800F046FBBF
:1046C000C7E7002301930293039301238DF804307D
:1046D000E1E70146064800F039FBEBE70120EAE795
:1046E000A08200205C92002071440008D073020870
:1046F000E873020830B5A5B0FFF798FF04461F4BDA
:104700005D681F4B1B78042B0FD800208DF8040028
:10471000ADF8040001A9FFF727FF6B7F012B08D03C
:10472000174B1B782BBB25B030BD164800F00EFB95
:10473000EBE72378012B10D1AB7FFF2B05D0EB7F6C
:10474000FF2B02D0FFF778FF09E00D4B1B78002B01
:10475000E9D00D4800F0FAFAE5E7FFF76DFF002811
:10476000E1D1074B1B78002BDDD0084800F0EEFAB2
:10477000D9E7054800F0EAFAD5E700BF5C920020CF
:10478000A0820020187402083474020870740208B1
:1047900010B50446FFF78EFE022C00D001BE10BDFE
:1047A00000B583B04FF0FF330193054B01AA0421FC
:1047B0004FF64E400EF0D2FD03B05DF804FB00BF93
:1047C0006148000870B5C2B0234BD9681B7E012B2D
:1047D00027D0214B5C68641AFA2C00D9FA241E4DAC
:1047E0006B695A188DF804201346120A8DF80520BB
:1047F0001A0C8DF806201B0E8DF80730AB68224688
:10480000194402A81AF0E8FD211D144B01AAC9B2EF
:104810004FF64C400EF0A2FDEB682344EB6042B033
:1048200070BD0D4EB3685A185C5C537804EB0324DA
:10483000A4B29578094B0332294620460EF08EFD2E
:10484000F3681D440335F5604FF64E439C42E6D1B4
:1048500005223270E3E700BF68920020614800083B
:1048600008B543681B7843B9494B1B78032B32D0FA
:10487000052B6AD0012B07D008BD454B1B69002BC7
:10488000FAD002209847F7E70288414B5B889A42AA
:1048900006D03F4B1B69002BEED002209847EBE778
:1048A0003B4B02221A703B4BDB79042B09D8384B67
:1048B0005B7853B9364B1B69002BDDD0002098473D
:1048C000DAE7354800F042FAF1E7314B03221A707B
:1048D000FFF778FFD0E702884FF64C439A4206D0A4
:1048E0002B4B1B69002BC7D002209847C4E7284BED
:1048F000DA685B689A4225D3254B04221A705B78EC
:104900006BB1244BDB79934205D8214B05221A70F9
:10491000FFF746FFB0E7214800F018FAF5E71D4B16
:10492000DB79042B0AD81A4B59685A690A445A6130
:104930001B69002BA0D0002098479DE7184800F085
:1049400005FAF0E7FFF73EFF96E702884FF64E4381
:104950009A4206D00E4B1B69002B8DD0022098473F
:104960008AE70C4BDB79042B0ED8094B1B690BB182
:1049700001209847064B00221A605A609A60DA605C
:104980001A615A619A6177E7064800F0DFF9ECE7AF
:1049900068920020A0820020A8740208C87402084F
:1049A00004750208347502082DE9F04784B0824688
:1049B0000E46174699469DF83480274BDB79042B29
:1049C0002ED8264C002525606560A560E560256130
:1049D0006561A5614FF62E4363802EB1A6606760C6
:1049E000002F36D0012262701C4B9DF830201A76C1
:1049F000C3F810A0B9F1000F16D0C3F81490174BEC
:104A000001221A70B8F1000F12D0154B0022114686
:104A10004FF62E400EF0A2FC404604B0BDE8F087F1
:104A2000104800F093F9CCE70C4B0F4A5A61E6E7C7
:104A300000238DF80730029303934FF62E43ADF811
:104A400008300DF10703039302A8FFF709FF0120C7
:104A5000E3E70020E1E700BFA08200206892002089
:104A6000614800084C750208005D080000B583B07D
:104A7000002269460448FFF7B9FA10B90198009B73
:104A8000984703B05DF804FB8492002010B584B011
:104A900004461C48FFF7EAF9B0B9042240211A483D
:104AA000FFF75CFA0146D0B90294052301934FF455
:104AB000105300930023154A15491648FFF790F844
:104AC0000146A8B9002004E00146134B9B7A13B9B4
:104AD000CF2004B010BD114800F038F9F8E70E4BB4
:104AE0009B7A0BB9BF20F4E70D4800F02FF9F9E7E6
:104AF000094B9B7A0BB9C020EBE70A4800F026F976
:104B0000F9E700BF9492002098920020BC7602083A
:104B1000057500208C920020A08200205C7602089F
:104B20008C760208CC76020800207047002070477F
:104B300008B5054B5B7803B908BD0A460146034832
:104B400000F004F9F8E700BFA0820020F876020820
:104B500008B5042A07D8DFE802F027030C151E0069
:104B6000164B1B7A03B908BD0146154800F0EEF854
:104B7000F9E7124B1B7A012BF5D90146104800F0DA
:104B8000E5F8F0E70D4B1B7A022BECD901460C48F7
:104B900000F0DCF8E7E7094B1B7A032BE3D9014669
:104BA000074800F0D3F8DEE7044B1B7A042BDAD970
:104BB0000146034800F0CAF8D5E700BFA0820020F4
:104BC0001C77020870B505460C461A4B5B78042B1F
:104BD00014D8CDB1C4B1214601201AF099FC064683
:104BE00030B3224629461AF0F7FB2246314601200F
:104BF0001AF0E2FC014690B9002009E00A4601469D
:104C00000D4800F0A3F8E4E70A4B5B780BB92820C5
:104C100070BD22462946094800F098F8F7E7054B91
:104C20005B780BB92820F3E7054800F08FF8F9E727
:104C30002820EDE7A082002098780208C4780208B6
:104C4000FC78020800B595B05022002168461AF0A1
:104C5000ABFB204B0093204B0193204B0293204B46
:104C60000393204B0493204B0693204B0793204B38
:104C70000893204B0993204B0B93204B0C93204B14
:104C80000D93204B0A93204B0F93204811908022C4
:104C900010921F4B129300211AF086FB01211D4830
:104CA000FFF716F818B101461B4B5B7853B96846FD
:104CB0000EF08CFC014610B1174B5B7833B915B080
:104CC0005DF804FB154800F041F8F0E7144800F0E7
:104CD0003DF8F4E7314B0008354D00083D4D000824
:104CE00045500008AD500008F176002005770020FF
:104CF000157700203D770020C54B0008294B0008A0
:104D00002D4B0008A5770020514B0008A4960020E9
:104D1000D94300089C960020A08200203079020828
:104D20006C79020808B50248FFF720F808BD00BFFB
:104D30009C96002008B516F0FFFE08BD08B516F0D9
:104D400003FF08BD08B500F0DFF908BD0FB470B56A
:104D500082B006AC54F8046B6846FFF7F9F9019489
:104D6000084D234632468021284617F073FD2A4617
:104D70000099054817F092FC02B0BDE8704004B0FD
:104D8000704700BF24970020A079020870470000F8
:104D900008B50139072905D8DFE801F0131304131A
:104DA00004040406084808BD012008F0DBFD4FF0AC
:104DB000FF31064806F0C2F8002008F0D3FD0020BD
:104DC000F1E70020EFE700BFFF004200B4970020AA
:104DD00008B50E4B1B79042B0FD84FF0FF32012181
:104DE00003201AF065FC0022012103201AF060FC68
:104DF000064B1B79042B04D808BD0548FFF7A6FF16
:104E0000EBE70448FFF7A2FFF6E700BFA08200200F
:104E1000AC790208B879020808B504481AF024FBF6
:104E200008B1002008BDB120FCE700BFB08200201F
:104E300008B54FF0FF310248FEF7B8FF08BD00BFCC
:104E4000B097002008B50249024806F01FFA08BDD5
:104E5000594E0008B497002008B5012148F20220FD
:104E60001AF06EFA08BD000008B5837813B1012B63
:104E700006D008BD012148F201601AF061FAF8E796
:104E80000148FEF7C9FFF4E7B097002070B58EB077
:104E90000DF1080C424C0FCCACE80F000FCCACE885
:104EA0000F0094E80F008CE80F003E4B1B7813B105
:104EB00000200EB070BD0321002008F0C9FD394C60
:104EC0004FF4B072002120461AF06EFA0022012140
:104ED000201DFEF757FF1AF087FB0546FFF778FF06
:104EE000012008F03FFD02A904F1080006F060F877
:104EF0000446002008F036FD1CB12B4B1B7993B9FA
:104F000001BE2A492A4806F089F9064618B1264BFF
:104F10001B7963B901BE6B46264A92E8030083E819
:104F2000030000241AE02448FFF710FFE8E70146D9
:104F30002248FFF70BFFEDE70EAB03EBC40353F87A
:104F4000343C53B10DEBC401194806F073F9064621
:104F500018B1154B1B79C3B901BE0134002CEBD03D
:104F600028461AF0C9FAFFF757FF18B10E4B1B7904
:104F70008BB901BE0B4B01221A700B4B1B79042B12
:104F800096D90F48FFF7E2FE92E7024621460D4808
:104F9000FFF7DCFEE0E731460B48FFF7D7FEE8E716
:104FA000047B0208AC970020A082002081790020B9
:104FB000B4970020347B0208D0790208F479020803
:104FC000887A0208287A0208547A020810B5114B30
:104FD0001B7843B1104806F099F890B10F4B1B793C
:104FE00053B9CA240EE00D4B1B790BB9B7240FE05F
:104FF0000B48FFF7ABFEF9E70A48FFF7A7FECA2404
:1050000000E000244FF4B072002102481AF0CCF9FD
:10501000204610BDAC970020B4970020A08200204D
:10502000C07A0208DC7A02080020704708B5FFF752
:105030002DFD08BD08B5002148F201401AF080F9A5
:1050400008BD000000B583B001A8FFF781F8019BFF
:10505000144A1268934203D213494A6801324A60E3
:10506000104A1360104A116852685B1842F100023E
:10507000510141EAD3614FEA431CBCEB030C61EBE5
:1050800002004FEA800E4EEA9C7E4FEA8C01CB185C
:1050900042EB0E02D10041EA5371D80003B05DF833
:1050A00004FB00BF309900202899002038B5044641
:1050B0000D46FFF7C7FF02460B46201A65EB0101BC
:1050C000A242AB4113D24FF47A72002316F08CFB4C
:1050D000044601460948FFF713F868B1084B1B78EE
:1050E000042B09D921460748FFF730FE04E00021D0
:1050F00048F201401AF024F938BD00BF349900206D
:10510000A08200203C7B020808B50023024A01214E
:105110000248FEF7BFFF08BD355000083499002053
:105120007047000008B50346084A1068084A121A7A
:105130009A4203DB0344054A136008BD17F032FDB1
:105140000C2303604FF0FF30F7E700BFD48200204C
:1051500000DC032008B500F047FC08BD08B51AF0D4
:105160005FF908BD1AB9084205D11046704781435E
:1051700003D000207047012070470120704738B5E8
:10518000202000F06CF9044628B1002540F8045BAB
:105190001AF0E6F92577204638BD2DE9F8430D468B
:1051A00017461E46DDF820808146D8B115F07F4FA6
:1051B0001CD1FDB11AF084FA10B9B8F1000F1DD15D
:1051C00000F012FCD9F80040324629462046FFF78D
:1051D000C9FFB8B14FB324EA0503C9F800304FF056
:1051E000000824E000F030F901BEDFE700F02CF900
:1051F00001BEDEE700F028F901BEDBE700F024F98C
:1052000001BEDDE7B8F1000F11D05FB900210EB18A
:1052100041F080614246294309F104001AF07CFA0A
:10522000002404E04FF08071F1E74FF000081AF01D
:10523000F7F8B8F1000F08D050B100F005FD0446B2
:1052400010F0007F07D024F07F442046BDE8F883AB
:105250001AF042F9F1E71AF087F8D9F8004032461F
:1052600029462046FFF77EFF20B11FB124EA05053D
:10527000C9F800501AF0DCF8E5E7F8B50D46044629
:1052800060B115F07F4F0DD104F10C0600F0ACFBBE
:10529000206923682B432360002712E000F0D4F834
:1052A00001BEEEE700F0D0F801BEEDE7216832EA7A
:1052B000010105D111E0216841F000711AF094F864
:1052C0002846B0420ED04568036823F07F4213F0B1
:1052D000806FEBD121681142F2D013F0807FEAD0C9
:1052E0001743E8E7236823EA070323601AF098F8D6
:1052F0002068F8BD08B5FFF7C0FF08BD10B504462B
:1053000010B100F071FB08E000F09EF801BEF8E774
:105310004FF0007120691AF067F8636843B12269A1
:1053200004F10C039A42F3D100F08EF801BEEFE7CE
:105330001AF076F8237F03B110BD204600F09FF8E5
:10534000FAE7000008B513460A460146014800F096
:10535000CBFF08BDF552000830B40D68B5F1FF3F32
:1053600011D000F108031C465B681A68AA42FAD9FA
:1053700063684B6099608C60616008610368013309
:10538000036030BC70470469F2E708B5836913F81D
:10539000023C022B03D000F057F801BE08BD1AF002
:1053A0005BF9FBE710B44FF0807440F8044C40F810
:1053B000082C1F4A40F80C2C4FF0123240F8102CE9
:1053C0004FF0033240F8142C4FF0023240F8182C02
:1053D0004FF0013240F81C2C40F8203C4FF01133C4
:1053E00040F8243C4FF0103340F8283C4FF009338C
:1053F00040F82C3C4FF0083340F8303C4FF0073376
:1054000040F8343C4FF0063340F8383C4FF0053359
:1054100040F83C3C4FF0043340F8403C6FF043030D
:1054200040F8443C40F8481C483810BC704700BF66
:10543000D13E002008B500F007F801BEFEE708B530
:1054400000F002F801BEFEE7EFF311804FF03F01DC
:1054500081F31188BFF34F8FBFF36F8F704710B583
:10546000044600F0C1FA204616F066FB044619F027
:10547000D7FF0CB1204610BDFFF7DCFFFAE748B1BB
:1054800010B5044600F0B0FA204616F05DFB19F0A6
:10549000C7FF10BD70470346406A18B11B6B186800
:1054A000C0F10700704738B50D46044668B13CB1FD
:1054B000E36B2BB1226C0021A3FB02324AB951B13C
:1054C000FFF7C2FF01BE002038BDFFF7BDFF01BEE0
:1054D000EDE70121F3E719F047FF2368E26B216C48
:1054E00001FB0230A0600020A0636360013A02FB70
:1054F0000133E360FF2384F8443084F8453075B904
:1055000023691BB919F094FF0120DDE704F11000B5
:1055100019F0C2FF0028F5D019F0DEFFF2E704F120
:1055200010001AF01DF804F124001AF019F8E9E748
:1055300038B51D46049C0B4649B92460E0632364DA
:1055400001212046FFF7AFFF84F84C5038BD2260A0
:10555000F4E7F0B585B006460F4615461C46C3B1C4
:10556000EEB1E4B105B1D7B1BDB150230393039BB4
:10557000502B19D1039B012384F8463000949DF8E9
:1055800028302A4639463046FFF7D2FF204605B07C
:10559000F0BDFFF759FF01BEE2E7002FE5D0FFF7AE
:1055A00053FF01BE0020F2E7FFF74EFF01BEE1E727
:1055B000F0B583B0F8B10C46174605460023A0FBB2
:1055C0000412B2B9BBB904FB05F010F1510F12D8A7
:1055D0005030FFF744FF064688B1002380F846307C
:1055E00000903B4600F1500221462846FFF7A0FFFD
:1055F00005E00123E6E7FFF727FF01BE002630465E
:1056000003B0F0BD10B548B10C46884206D3022263
:105610000021FFF7CDFF28B1846303E0FFF714FFFB
:1056200001BE002010BD48B108B5002181600160B5
:10563000C1600B460A4619F05BFF08BD704710B504
:10564000024600210120FFF7B3FF0446FFF7EBFFFE
:10565000204610BD2DE9F8430C461746804668B138
:1056600084B1FFF7F1FE0546D8F8386096B90024FA
:10567000284619F0C9FE2046BDE8F883FFF7E4FE8E
:1056800001BEEDE7D8F84030002BEAD0FFF7DCFE92
:1056900001BEE6E798F844904FFA89F92146404662
:1056A00019F06AFF013EC8F83860B9F1FF3F0DD12B
:1056B000D8F810300BB90124DAE708F1100019F01E
:1056C000EBFEB0B1BFB101243C60D1E700F09AF924
:1056D000814512D2B9F17F0F07D009F101094FFAC4
:1056E00089F988F844900124C2E7FFF7ADFE01BEB6
:1056F000F3E70124BCE70124BAE70124B8E710B5B9
:10570000044608B1A06B10BDFFF79EFE01BEF9E78D
:1057100038B50D46044618B165B1002003460BE0CC
:10572000FFF792FE01BEF7E70D4800EBC30008B19A
:105730000560446038BD0133092BF8D8084A02EBF4
:10574000C3025268A242EFD00028F4D1044A52F8B2
:105750003320002AEFD1024800EBC300EBE700BF83
:105760003899002010B5044650B10023092B12D8F7
:10577000094A02EBC3025268A24205D00133F5E7A1
:10578000FFF762FE01BEF0E7034A002142F8331042
:1057900002EBC302516010BD3899002010B50446D9
:1057A00030B12046FFF7DEFF94F8463023B110BD3C
:1057B000FFF74AFE01BEF4E72046FFF760FEF6E77A
:1057C0002DE9F04780460D4617469946089EDDF8BC
:1057D00024A00A9C9200A521206B19F0E5FD236B03
:1057E00007F18042013A03EB820727F007078DB1EA
:1057F0004FF0000CBCF10F0F09D815F80C3004EB7A
:105800000C0282F8343013B10CF1010CF2E70023E2
:1058100084F84330062E2BD8062E00D90626E662E1
:10582000E664201D19F028FE04F1180019F024FE8A
:105830002461C6F10706A66164624C22002104F1CE
:10584000680019F0B1FD0C4BE36603F168022267B2
:10585000D03363674B464246216B3846FFF7A2FDC3
:105860002060BAF1000F01D0CAF80040BDE8F0870F
:10587000FFF7EAFD01BECFE768A1002038B500249C
:1058800007E004EB840293000E48184419F068FE08
:105890000134062CF5D90C4D284619F061FE0B4C4D
:1058A000204619F05DFE0A4819F05AFE094819F021
:1058B00057FE094819F054FE084B1D60084B1C6048
:1058C00038BD00BF94990020349A0020489A0020E7
:1058D0006C9A0020989A0020849A00208C990020CD
:1058E0009099002010B50446683017F0ABF894F892
:1058F000B9303BB1012B0CD0022B09D0FFF7A4FD2E
:1059000001BE05E0206BFFF7BAFD2046FFF7B7FDAB
:1059100010BD2046FFF7B3FDFAE700000F4B1B68F0
:10592000D3B110B519F020FD0D4BDB68DC68201DEC
:1059300019F012FD0B4A1368013B1360074A136804
:10594000013B136019F074FD2046FFF7CBFF034BBA
:105950001B68002BE6D110BD704700BF249A0020C1
:10596000989A0020209A00202DE9F04387B08146C4
:105970000E46174698460F9D109C15B32CB3BC22BB
:105980000492049ABC2A24D1049B34B32DB3BC22C4
:105990000021204619F008FD2563022384F8B93060
:1059A00000230393029405AB01930E9B009343469F
:1059B0003A4631464846FFF703FF204619F03CFDC2
:1059C0000DE0FFF741FD01BED8E7FFF73DFD01BE49
:1059D000D5E7FFF739FD01BED6E70023059305980B
:1059E00007B0BDE8F0830000024A1368013313607A
:1059F000704700BF289A0020014B1868704700BF0D
:105A0000AC9A0020014B1868704700BF209A002014
:105A100038B50C46054650B1074B19681831284671
:105A2000FFF79AFC0121204619F0F6FC38BDFFF77C
:105A30000BFD01BEF0E700BF88990020034B1B68F7
:105A40000360034B1B684360704700BF649A0020EB
:105A5000AC9A002000284BD038B50446C36A264AC9
:105A60001268D26A93423BD28269002A05DB224A3D
:105A70001268D26AC2F107028261616903EB830393
:105A80001E4A02EB8303994205D01B4B1B68DB6A5D
:105A9000E362012038BD251D284619F05DFC164B38
:105AA0001B68DB6AE362164A1268934201D9144A02
:105AB0001360124A03EB830302EB83035B68A3606A
:105AC0009968E1604D609D60E36A03EB83018800A3
:105AD00002EB810161611158013111500120D9E7B8
:105AE000C26C054B1B68DB6A9A4203D30020D1E7E6
:105AF000002070470120CDE788990020949900206C
:105B0000309A002000283ED038B50446204B1B6850
:105B1000834202D0FFF798FC01BE236D4BB1236D89
:105B2000013B2365E16AE26C91422ED02BB100204B
:105B300038BDFFF789FC01BEF1E7251D284619F0A5
:105B40000BFCE36CE362C3F10702A261114A126825
:105B5000934201D90F4A13600F4A03EB830302EB10
:105B600083035B68A3609968E1604D609D60E36AB0
:105B700003EB8301880002EB81016161115801315F
:105B800011500120D4E7002070470020D0E700BF6B
:105B900088990020309A00209499002000284CD049
:105BA00070B50D460446036D53B1E66CAE4200D2AB
:105BB0002E46E36AB34202D0236D012B04D070BDA0
:105BC000FFF742FC01BEF0E71C4B1B68A34230D03C
:105BD000E36AE662A269002A02DBC6F10706A66153
:105BE000616903EB8303164A02EB83039942E6D112
:105BF000251D284619F0B0FBE36A124A1268934249
:105C000001D9104A13600E4A03EB830302EB8303AE
:105C10005B68A3609968E1604D609D60E36A03EB97
:105C20008301880002EB810161611158013111503B
:105C3000C5E7FFF709FC01BECAE770478899002055
:105C400094990020309A0020044A136898691368D8
:105C5000DB6A1268C3F107039361704788990020DB
:105C6000054B1B6823B1044B1A68136D0133136590
:105C7000014B1868704700BF88990020F8B50F469F
:105C800016461D46044600283AD119F06DFB284BF4
:105C90001B68234493F8B830DBB2022B10D02449A0
:105CA0000B6804F12C0203EB82035A6822EA070214
:105CB0005A600B682344012283F8B820069B1BBB63
:105CC00019F0B6FB19F050FB3DB1194B1B6804F1FC
:105CD0002C0203EB82035B682B60154B1B6823448B
:105CE00093F8B830DBB2022B15D00025104B1B689F
:105CF0002344002283F8B82019F09AFB2846F8BD07
:105D0000FFF7A2FB01BEC0E71146184619F084FB5D
:105D100019F0E2FBD4E7064B1B6804F12C0203EBFD
:105D200082035A6822EA06025A600125DEE700BFB4
:105D3000889900202DE9F041044690461E46069FB2
:105D40000D46B9B9D4B119F00FFB2FB105F12C03F1
:105D500004EB83035B683B60631993F8B870FFB290
:105D6000022283F8B820042E2DD8DFE806F0340B89
:105D7000141C2300FFF768FB01BEE3E7FFF764FB99
:105D800001BEE0E72C3504EB85056B6843EA0803A8
:105D90006B60012520E02C3504EB85056B68013331
:105DA0006B60012518E02C3504EB8505C5F80480EF
:105DB000012511E0022F16D02C3504EB8505C5F81E
:105DC0000480012508E0294B1B6873B1FFF73CFBF9
:105DD00001BE012500E00125012F08D019F028FBA4
:105DE0002846BDE8F0810025F6E70125F4E7636960
:105DF000A168E2688A60A16851605A68211D8A42E0
:105E000030D0002262611A68013A1A60E36A184AC7
:105E10001268934201D9164A1360164A03EB8303B2
:105E200002EB83035B68A3609868E060416099605F
:105E3000E36A03EB8301880002EB81016161115881
:105E400001311150A36A13B1FFF7FEFA01BE19F038
:105E5000EBFBE26A084B1B68DB6A9A42BED919F079
:105E60003BFBBBE7E2685A60CBE700BFAC9A00207F
:105E7000309A00209499002088990020064B1A68D7
:105E800013682BB90123036023B9D36818687047DE
:105E90000023F8E700207047B49A002008B541605D
:105EA000006191420CD8D21A83699A4201D3012031
:105EB00008BD011D094B1868FFF74EFA0020F7E7EF
:105EC0009A4201D2994206D2011D054B1868FFF78C
:105ED00043FA0020ECE70120EAE700BFB89A00206F
:105EE000B49A002070B504460D46164604E0A36936
:105EF0001D44236A20469847A1692B46324629440F
:105F00002046FFF7CBFF0028F1D170BD70B50546E4
:105F10000E460D4B1B68DB68DC68201D19F01CFA6F
:105F200094F8283013F0040F07D123F0010384F80C
:105F30002830236A2046984770BD324629462046BD
:105F4000FFF7D0FFF5E700BFB49A002008B505E0E1
:105F5000DB684FF0FF311868FFF7D8FF054B1B686F
:105F60001A68002AF4D1044A1068024908601360D4
:105F700008BD00BFB49A0020B89A002038B5054685
:105F8000FFF73AFD0446074B1B68834205D8002300
:105F90002B60044B1C60204638BDFFF7D7FF012360
:105FA0002B60F6E7849B002070B582B006460C4655
:105FB000FFF71AFD01A8FFF7E1FF019B03BB0546B0
:105FC0000CB9B04210D224B10F4A1268126892B9CB
:105FD00001242246711B0D4B186819F0DDF919F0E8
:105FE0001FFA50B102B070BD19F01AFA29463046B6
:105FF000FFF78CFFF6E71C46EBE719F06DFAF1E7C7
:1060000019F00EFAEEE700BFB89A0020D89B0020E6
:1060100030B587B002E0029B002B0FDA002202A904
:10602000394B186819F034FB00286AD0029B002B0A
:10603000F1DA05990498039B9847ECE7049C63699F
:1060400013B1201D19F088F901A8FFF797FF054645
:10605000029B013B082BE1D8DFE803F0050529305E
:1060600045050529300094F8283043F0010384F8F1
:106070002830039BA169024619442046FFF70EFF12
:106080000028CBD094F8283013F0040F07D123F068
:10609000010384F82830236A20469847BEE7A369A5
:1060A0002A46039919442046FFF71CFFF3E794F8AA
:1060B000283023F0010384F82830AFE794F8283023
:1060C00043F0010384F82830039BA3613BB1A1692D
:1060D0002B462A4629442046FFF7E0FE9EE7FFF7BD
:1060E000B3F901BEF3E794F8283013F0020F04D09F
:1060F00023F0010384F8283090E72046FFF7BFF92A
:106100008CE707B030BD00BFD89B002000B583B03E
:1061100001A8FFF7B3FE0199FFF746FFFFF778FFED
:10612000F6E7000030B583B019F01EF9114B1B687B
:106130001BB119F07DF903B030BD0F4D284619F0A1
:106140000FFA0E4C204619F00BFA0D4B1D600D4B4B
:106150001C60002300930C4B0C4A10210A20FFF70F
:10616000F8F9044B18600028E3D00949FFF7D0FA8A
:10617000DFE700BFD89B00205C9B0020709B0020C5
:10618000B49A0020B89A0020889B0020BC9A002076
:10619000607B02082DE9F041074615461E46079C24
:1061A000884699B1FFF7BEFF2760C4F81880E66102
:1061B000069B2362201D19F05FF92DB194F8283059
:1061C00043F0040384F82830BDE8F081FFF73CF980
:1061D00001BEE7E710B588B0FFF7A4FF104B1B68BE
:1061E000C3B100240594069407AA06A905A8FDF7E3
:1061F00087FC059B0293069B019303230093234690
:10620000079A08490848FFF7AFFB084B186008B128
:10621000012003E0FFF718F901BE002008B010BD0F
:10622000D89B0020687B02080D610008DC9B0020E1
:106230002DE9F04182B00446884617461D462C20C1
:10624000FFF70DF9064658B1002380F82830019079
:10625000089B00932B463A4641462046FFF79AFF9B
:10626000304602B0BDE8F081F0B585B00C46154669
:106270001E46074698B1144B186818B30094019550
:106280000297052C17DC19F01BFA02280BD000230B
:106290001A4669460C48006819F02AF910E0FFF721
:1062A000D3F801BEE7E700230A9A6946064800686A
:1062B00019F01EF904E000233246694619F03CF853
:1062C00005B0F0BD0020FBE7D89B002010B50446C8
:1062D00030B119F049F8E46919F0AAF8204610BD68
:1062E000FFF7B2F801BEF4E710B584B014461A46C1
:1062F0006FF001030093019002910394002369461B
:106300000248006819F018F804B010BDD89B0020AE
:1063100038B514461D4683681A69986990472C441D
:106320001334B4FBF0F404FB000038BD012904D0A1
:10633000022907D069B101BE70471268036F9B1A2A
:1063400003677047036F11685B1A52681344036751
